:08000000803102288731FD2F39
:100ED400F301F401772F2000911C712F722F6D2FD5
:100EE40091100130F3070030F43D7408803AF200A9
:100EF4007108803A7202031D812F70087302031C6B
:100F0400842F852F6D2F080021000F108F100F11D3
:100F14008F110D108D100D118D1122000D108D10DB
:100F24000D118D110F108F100F118F11063020002D
:100F34009C007C309B009A01210091140B178B17A5
:100F4400E830F0000330F10087316A27873101303F
:100F540022008F008D01E830F0000330F10087316A
:100F64006A278731023022008F008D01E830F000BB
:100F74000330F10087316A278731043022008F0063
:100F84008D01E830F0000330F10087316A278731A2
:100F9400083022008F008D01E830F0000330F100AA
:100FA40087316A27873122008F0101308D00E830B4
:100FB400F0000330F10087316A27873122008F0166
:100FC40002308D00E830F0000330F10087316A27E9
:100FD400873122008F0104308D00E830F0000330A7
:100FE400F10087316A27873122008F0108308D0094
:0C0FF400A22F8031022820008731862FB8
:020000040001F9
:04000E00EA3FFB1EAC
:00000001FF
